{
  "contractName": "babySitters",
  "abi": [
    {
      "constant": true,
      "inputs": [],
      "name": "name",
      "outputs": [
        {
          "name": "",
          "type": "string"
        }
      ],
      "payable": false,
      "stateMutability": "view",
      "type": "function"
    },
    {
      "constant": true,
      "inputs": [],
      "name": "hiredNannies",
      "outputs": [
        {
          "name": "",
          "type": "uint256"
        }
      ],
      "payable": false,
      "stateMutability": "view",
      "type": "function"
    },
    {
      "constant": true,
      "inputs": [],
      "name": "NannyCount",
      "outputs": [
        {
          "name": "",
          "type": "uint256"
        }
      ],
      "payable": false,
      "stateMutability": "view",
      "type": "function"
    },
    {
      "constant": true,
      "inputs": [
        {
          "name": "",
          "type": "uint256"
        }
      ],
      "name": "nanniesHired",
      "outputs": [
        {
          "name": "",
          "type": "address"
        }
      ],
      "payable": false,
      "stateMutability": "view",
      "type": "function"
    },
    {
      "constant": true,
      "inputs": [],
      "name": "someOfRates",
      "outputs": [
        {
          "name": "",
          "type": "uint256"
        }
      ],
      "payable": false,
      "stateMutability": "view",
      "type": "function"
    },
    {
      "constant": true,
      "inputs": [],
      "name": "numberOfOpinioners",
      "outputs": [
        {
          "name": "",
          "type": "uint256"
        }
      ],
      "payable": false,
      "stateMutability": "view",
      "type": "function"
    },
    {
      "constant": true,
      "inputs": [
        {
          "name": "",
          "type": "uint256"
        }
      ],
      "name": "users",
      "outputs": [
        {
          "name": "",
          "type": "address"
        }
      ],
      "payable": false,
      "stateMutability": "view",
      "type": "function"
    },
    {
      "constant": true,
      "inputs": [
        {
          "name": "",
          "type": "uint256"
        }
      ],
      "name": "nannyAddresses",
      "outputs": [
        {
          "name": "",
          "type": "address"
        }
      ],
      "payable": false,
      "stateMutability": "view",
      "type": "function"
    },
    {
      "constant": true,
      "inputs": [
        {
          "name": "",
          "type": "address"
        }
      ],
      "name": "Nannies",
      "outputs": [
        {
          "name": "age",
          "type": "uint256"
        },
        {
          "name": "name",
          "type": "string"
        },
        {
          "name": "info",
          "type": "string"
        },
        {
          "name": "point",
          "type": "uint256"
        }
      ],
      "payable": false,
      "stateMutability": "view",
      "type": "function"
    },
    {
      "constant": true,
      "inputs": [
        {
          "name": "",
          "type": "uint256"
        }
      ],
      "name": "money",
      "outputs": [
        {
          "name": "",
          "type": "uint256"
        }
      ],
      "payable": false,
      "stateMutability": "view",
      "type": "function"
    },
    {
      "inputs": [],
      "payable": false,
      "stateMutability": "nonpayable",
      "type": "constructor"
    },
    {
      "constant": false,
      "inputs": [
        {
          "name": "_name",
          "type": "string"
        },
        {
          "name": "_age",
          "type": "uint256"
        },
        {
          "name": "_info",
          "type": "string"
        }
      ],
      "name": "registerAsNanny",
      "outputs": [],
      "payable": false,
      "stateMutability": "nonpayable",
      "type": "function"
    },
    {
      "constant": false,
      "inputs": [
        {
          "name": "_unRegister",
          "type": "address"
        }
      ],
      "name": "unRegisterANanny",
      "outputs": [],
      "payable": false,
      "stateMutability": "nonpayable",
      "type": "function"
    },
    {
      "constant": false,
      "inputs": [
        {
          "name": "_nanny",
          "type": "address"
        }
      ],
      "name": "hireNanny",
      "outputs": [],
      "payable": true,
      "stateMutability": "payable",
      "type": "function"
    },
    {
      "constant": false,
      "inputs": [
        {
          "name": "_hiredNanny",
          "type": "address"
        }
      ],
      "name": "fireNanny",
      "outputs": [],
      "payable": false,
      "stateMutability": "nonpayable",
      "type": "function"
    },
    {
      "constant": false,
      "inputs": [
        {
          "name": "_nanny",
          "type": "address"
        },
        {
          "name": "_rate",
          "type": "uint256"
        }
      ],
      "name": "tellOpinion",
      "outputs": [],
      "payable": false,
      "stateMutability": "nonpayable",
      "type": "function"
    }
  ],
  "bytecode": "0x60806040526000600155600061012f556000610130556000610131553480156200002857600080fd5b506040518060400160405280600981526020017f54656e64657266756c000000000000000000000000000000000000000000000081525060009080519060200190620000769291906200007d565b506200012c565b828054600181600116156101000203166002900490600052602060002090601f016020900481019282601f10620000c057805160ff1916838001178555620000f1565b82800160010185558215620000f1579182015b82811115620000f0578251825591602001919060010190620000d3565b5b50905062000100919062000104565b5090565b6200012991905b80821115620001255760008160009055506001016200010b565b5090565b90565b61134c806200013c6000396000f3fe6080604052600436106100e85760003560e01c806343233c171161008a578063aab3427211610059578063aab3427214610698578063b9c679ce146106f3578063ca8d53f214610742578063f0cecc3b14610786576100e8565b806343233c171461031f578063507666341461039a5780635f206e22146103eb5780638a985fed1461052f576100e8565b806325219079116100c657806325219079146101d3578063271c42281461024e5780632da542f114610279578063365b98b2146102a4576100e8565b806306fdde03146100ed5780630cd7e8b41461017d5780630d3f91b8146101a8575b600080fd5b3480156100f957600080fd5b506101026107d7565b6040518080602001828103825283818151815260200191508051906020019080838360005b83811015610142578082015181840152602081019050610127565b50505050905090810190601f16801561016f5780820380516001836020036101000a031916815260200191505b509250505060405180910390f35b34801561018957600080fd5b50610192610875565b6040518082815260200191505060405180910390f35b3480156101b457600080fd5b506101bd61087c565b6040518082815260200191505060405180910390f35b3480156101df57600080fd5b5061020c600480360360208110156101f657600080fd5b8101908080359060200190929190505050610882565b604051808273ffffffffffffffffffffffffffffffffffffffff1673ffffffffffffffffffffffffffffffffffffffff16815260200191505060405180910390f35b34801561025a57600080fd5b506102636108b5565b6040518082815260200191505060405180910390f35b34801561028557600080fd5b5061028e6108bc565b6040518082815260200191505060405180910390f35b3480156102b057600080fd5b506102dd600480360360208110156102c757600080fd5b81019080803590602001909291905050506108c3565b604051808273ffffffffffffffffffffffffffffffffffffffff1673ffffffffffffffffffffffffffffffffffffffff16815260200191505060405180910390f35b34801561032b57600080fd5b506103586004803603602081101561034257600080fd5b81019080803590602001909291905050506108f6565b604051808273ffffffffffffffffffffffffffffffffffffffff1673ffffffffffffffffffffffffffffffffffffffff16815260200191505060405180910390f35b3480156103a657600080fd5b506103e9600480360360208110156103bd57600080fd5b81019080803573ffffffffffffffffffffffffffffffffffffffff169060200190929190505050610929565b005b3480156103f757600080fd5b5061043a6004803603602081101561040e57600080fd5b81019080803573ffffffffffffffffffffffffffffffffffffffff169060200190929190505050610a0e565b604051808581526020018060200180602001848152602001838103835286818151815260200191508051906020019080838360005b8381101561048a57808201518184015260208101905061046f565b50505050905090810190601f1680156104b75780820380516001836020036101000a031916815260200191505b50838103825285818151815260200191508051906020019080838360005b838110156104f05780820151818401526020810190506104d5565b50505050905090810190601f16801561051d5780820380516001836020036101000a031916815260200191505b50965050505050505060405180910390f35b34801561053b57600080fd5b506106966004803603606081101561055257600080fd5b810190808035906020019064010000000081111561056f57600080fd5b82018360208201111561058157600080fd5b803590602001918460018302840111640100000000831117156105a357600080fd5b91908080601f016020809104026020016040519081016040528093929190818152602001838380828437600081840152601f19601f820116905080830192505050505050509192919290803590602001909291908035906020019064010000000081111561061057600080fd5b82018360208201111561062257600080fd5b8035906020019184600183028401116401000000008311171561064457600080fd5b91908080601f016020809104026020016040519081016040528093929190818152602001838380828437600081840152601f19601f820116905080830192505050505050509192919290505050610b6e565b005b3480156106a457600080fd5b506106f1600480360360408110156106bb57600080fd5b81019080803573ffffffffffffffffffffffffffffffffffffffff16906020019092919080359060200190929190505050610d92565b005b3480156106ff57600080fd5b5061072c6004803603602081101561071657600080fd5b8101908080359060200190929190505050610e82565b6040518082815260200191505060405180910390f35b6107846004803603602081101561075857600080fd5b81019080803573ffffffffffffffffffffffffffffffffffffffff169060200190929190505050610e9b565b005b34801561079257600080fd5b506107d5600480360360208110156107a957600080fd5b81019080803573ffffffffffffffffffffffffffffffffffffffff16906020019092919050505061108c565b005b60008054600181600116156101000203166002900480601f01602080910402602001604051908101604052809291908181526020018280546001816001161561010002031660029004801561086d5780601f106108425761010080835404028352916020019161086d565b820191906000526020600020905b81548152906001019060200180831161085057829003601f168201915b505050505081565b61012f5481565b60015481565b60cb816064811061088f57fe5b016000915054906101000a900473ffffffffffffffffffffffffffffffffffffffff1681565b6101315481565b6101305481565b606781606481106108d057fe5b016000915054906101000a900473ffffffffffffffffffffffffffffffffffffffff1681565b6003816064811061090357fe5b016000915054906101000a900473ffffffffffffffffffffffffffffffffffffffff1681565b60008090505b6064811015610a0a5760cb816064811061094557fe5b0160009054906101000a900473ffffffffffffffffffffffffffffffffffffffff1673ffffffffffffffffffffffffffffffffffffffff168273ffffffffffffffffffffffffffffffffffffffff1614156109fd57600060cb82606481106109a957fe5b0160006101000a81548173ffffffffffffffffffffffffffffffffffffffff021916908373ffffffffffffffffffffffffffffffffffffffff16021790555061012f60008154809291906001900391905055505b808060010191505061092f565b5050565b6002602052806000526040600020600091509050806000015490806001018054600181600116156101000203166002900480601f016020809104026020016040519081016040528092919081815260200182805460018160011615610100020316600290048015610ac05780601f10610a9557610100808354040283529160200191610ac0565b820191906000526020600020905b815481529060010190602001808311610aa357829003601f168201915b505050505090806002018054600181600116156101000203166002900480601f016020809104026020016040519081016040528092919081815260200182805460018160011615610100020316600290048015610b5e5780601f10610b3357610100808354040283529160200191610b5e565b820191906000526020600020905b815481529060010190602001808311610b4157829003601f168201915b5050505050908060030154905084565b610b773361108f565b610be9576040517f08c379a00000000000000000000000000000000000000000000000000000000081526004018080602001828103825260118152602001807f416c72656164792072656769737465726400000000000000000000000000000081525060200191505060405180910390fd5b60008351118015610bfb575060128210155b8015610c08575060058151115b610c7a576040517f08c379a00000000000000000000000000000000000000000000000000000000081526004018080602001828103825260148152602001807f536f6d657468696e672069732077726f6e67212100000000000000000000000081525060200191505060405180910390fd5b60405180608001604052808381526020018481526020018281526020016000815250600260003373ffffffffffffffffffffffffffffffffffffffff1673ffffffffffffffffffffffffffffffffffffffff168152602001908152602001600020600082015181600001556020820151816001019080519060200190610d0192919061127b565b506040820151816002019080519060200190610d1e92919061127b565b506060820151816003015590505033600360015460648110610d3c57fe5b0160006101000a81548173ffffffffffffffffffffffffffffffffffffffff021916908373ffffffffffffffffffffffffffffffffffffffff160217905550600160008154809291906001019190505550505050565b60008110158015610da4575060058111155b610e16576040517f08c379a00000000000000000000000000000000000000000000000000000000081526004018080602001828103825260108152602001807f496e76616c696420726174696e6721210000000000000000000000000000000081525060200191505060405180910390fd5b610130600081548092919060010191905055506000610e3482611123565b905080600260008573ffffffffffffffffffffffffffffffffffffffff1673ffffffffffffffffffffffffffffffffffffffff16815260200190815260200160002060030181905550505050565b6101338160648110610e9057fe5b016000915090505481565b610ea433611153565b610f16576040517f08c379a00000000000000000000000000000000000000000000000000000000081526004018080602001828103825260178152602001807f4e616e6e792063616e6e6f74206869726573656c66212100000000000000000081525060200191505060405180910390fd5b610f1f816111e7565b610f91576040517f08c379a00000000000000000000000000000000000000000000000000000000081526004018080602001828103825260208152602001807f536865206973206e6f74207265676973746572642061732061206e616e6e792181525060200191505060405180910390fd5b6729a2241af62c000034101561100f576040517f08c379a00000000000000000000000000000000000000000000000000000000081526004018080602001828103825260128152602001807f4e6f7420656e6f7567682065746865722121000000000000000000000000000081525060200191505060405180910390fd5b3461013361012f546064811061102157fe5b01819055508060cb61012f546064811061103757fe5b0160006101000a81548173ffffffffffffffffffffffffffffffffffffffff021916908373ffffffffffffffffffffffffffffffffffffffff16021790555061012f6000815480929190600101919050555050565b50565b6000806001905060008090505b6064811015611119578373ffffffffffffffffffffffffffffffffffffffff16600382606481106110c957fe5b0160009054906101000a900473ffffffffffffffffffffffffffffffffffffffff1673ffffffffffffffffffffffffffffffffffffffff16141561110c57600091505b808060010191505061109c565b5080915050919050565b60008161013160008282540192505081905550600061013054610131548161114757fe5b04905080915050919050565b6000806001905060008090505b60648110156111dd578373ffffffffffffffffffffffffffffffffffffffff166003826064811061118d57fe5b0160009054906101000a900473ffffffffffffffffffffffffffffffffffffffff1673ffffffffffffffffffffffffffffffffffffffff1614156111d057600091505b8080600101915050611160565b5080915050919050565b6000806000905060008090505b6064811015611271578373ffffffffffffffffffffffffffffffffffffffff166003826064811061122157fe5b0160009054906101000a900473ffffffffffffffffffffffffffffffffffffffff1673ffffffffffffffffffffffffffffffffffffffff16141561126457600191505b80806001019150506111f4565b5080915050919050565b828054600181600116156101000203166002900490600052602060002090601f016020900481019282601f106112bc57805160ff19168380011785556112ea565b828001600101855582156112ea579182015b828111156112e95782518255916020019190600101906112ce565b5b5090506112f791906112fb565b5090565b61131d91905b80821115611319576000816000905550600101611301565b5090565b9056fea165627a7a723058205d8e66391565eb7a651c4ae8eef0cec2e4535b3828b1bb2bf29a2b441beef3640029",
  "source": "pragma solidity >=0.4.21 <0.7.0;\n\ncontract babySitters {\n    string public name;\n    uint256 public NannyCount = 0; // trake #of nanny\n    mapping(address => Nanny) public Nannies; //store the nanny Id with ather info in blockchain\n    address[100] public nannyAddresses;\n    address[100] public users;\n    address[100] public nanniesHired;\n    uint256 public hiredNannies = 0;\n    uint256 public numberOfOpinioners = 0;\n    uint256 public someOfRates = 0;\n    address developers;\n    uint256[100] public money;\n\n    struct Nanny {\n        // all nanny data\n        uint256 age;\n        string name;\n        string info;\n        uint256 point;\n    }\n\n    constructor() public {\n        // first thing will apper\n        name = \"Tenderful\";\n    }\n\n    function registerAsNanny(\n        string memory _name,\n        uint256 _age,\n        string memory _info\n    ) public {\n        // Create the nanny\n        // Require valid _info\n        require(searchAddress(msg.sender), \"Already registerd\");\n        require(\n            bytes(_name).length > 0 && _age >= 18 && bytes(_info).length > 5,\n            \"Something is wrong!!\"\n        );\n        Nannies[msg.sender] = Nanny(_age, _name, _info, 0); // nannyID ,age, name,info\n        nannyAddresses[NannyCount] = msg.sender;\n        // Increment the nanny count\n        NannyCount++;\n    }\n\n    function searchAddress(address _sender) private view returns (bool) {\n        bool condition = true;\n        for (uint256 i = 0; i < nannyAddresses.length; i++) {\n            if (nannyAddresses[i] == _sender) {\n                condition = false;\n            }\n        }\n        return condition;\n    }\n\n    function unRegisterANanny(address _unRegister) public {}\n\n    function hireNanny(address _nanny) public payable {\n        require(isNotANanny(msg.sender), \"Nanny cannot hireself!!\");\n        require(isANanny(_nanny), \"She is not registerd as a nanny!\");\n        require(msg.value >= 3 ether, \"Not enough ether!!\");\n        money[hiredNannies] = msg.value;\n        nanniesHired[hiredNannies] = _nanny;\n        hiredNannies++;\n    }\n\n    function isNotANanny(address _sender) private view returns (bool) {\n        bool condition = true;\n        for (uint256 i = 0; i < nannyAddresses.length; i++) {\n            if (nannyAddresses[i] == _sender) {\n                condition = false;\n            }\n        }\n        return condition;\n    }\n\n    function isANanny(address _sender) private view returns (bool) {\n        bool condition = false;\n        for (uint256 i = 0; i < nannyAddresses.length; i++) {\n            if (nannyAddresses[i] == _sender) {\n                condition = true;\n            }\n        }\n        return condition;\n    }\n\n    function fireNanny(address _hiredNanny) public {\n        for (uint256 i = 0; i < nanniesHired.length; i++) {\n            if (_hiredNanny == nanniesHired[i]) {\n                nanniesHired[i] = 0x0000000000000000000000000000000000000000;\n                hiredNannies--;\n            }\n        }\n    }\n\n    function tellOpinion(address _nanny, uint256 _rate) public {\n        require(_rate >= 0 && _rate <= 5, \"Invalid rating!!\");\n        numberOfOpinioners++;\n        uint256 average = calculateAverage(_rate);\n        Nannies[_nanny].point = average;\n    }\n\n    function calculateAverage(uint256 _rate) private returns (uint256) {\n        someOfRates += _rate;\n        uint256 averageCalculation = someOfRates / numberOfOpinioners;\n        return averageCalculation;\n    }\n}\n",
  "sourcePath": "/Users/aziz/Documents/GitHub/Tenderful-/contracts/babySitters.sol",
  "compiler": {
    "name": "solc",
    "version": "0.5.8+commit.23d335f2.Emscripten.clang"
  },
  "schemaVersion": "3.0.11",
  "updatedAt": "2020-07-21T09:15:43.623Z",
  "devdoc": {
    "methods": {}
  },
  "userdoc": {
    "methods": {}
  }
}